:03000000021000EB
:101000001104010011547004116701041167117576
:1010100011547004116701047AFE7C00908002EA8A
:10102000F0908001E020E0047400013F20E10474AE
:1010300006013F20E204740C013F20E30C74122CE3
:10104000FD115470FCED1162220CEA30E50423FA24
:10105000011C01049080027400F0908001E0F454BF
:101060000F2290107E93FB9080027401F090800418
:10107000EBF01175227F0C7EFADEFEDFFA227E7E17
:101080005E79713F7E7E394F5B067E7E7C7D6D662C
:061090007E7E776F7F07F2
:00000001FF
